{
  "contractName": "ThankYouNft",
  "abi": [
    {
      "inputs": [],
      "stateMutability": "nonpayable",
      "type": "constructor"
    },
    {
      "anonymous": false,
      "inputs": [
        {
          "indexed": true,
          "internalType": "address",
          "name": "owner",
          "type": "address"
        },
        {
          "indexed": true,
          "internalType": "address",
          "name": "approved",
          "type": "address"
        },
        {
          "indexed": true,
          "internalType": "uint256",
          "name": "tokenId",
          "type": "uint256"
        }
      ],
      "name": "Approval",
      "type": "event"
    },
    {
      "anonymous": false,
      "inputs": [
        {
          "indexed": true,
          "internalType": "address",
          "name": "owner",
          "type": "address"
        },
        {
          "indexed": true,
          "internalType": "address",
          "name": "operator",
          "type": "address"
        },
        {
          "indexed": false,
          "internalType": "bool",
          "name": "approved",
          "type": "bool"
        }
      ],
      "name": "ApprovalForAll",
      "type": "event"
    },
    {
      "anonymous": false,
      "inputs": [
        {
          "indexed": true,
          "internalType": "address",
          "name": "previousOwner",
          "type": "address"
        },
        {
          "indexed": true,
          "internalType": "address",
          "name": "newOwner",
          "type": "address"
        }
      ],
      "name": "OwnershipTransferred",
      "type": "event"
    },
    {
      "anonymous": false,
      "inputs": [
        {
          "indexed": true,
          "internalType": "address",
          "name": "from",
          "type": "address"
        },
        {
          "indexed": true,
          "internalType": "address",
          "name": "to",
          "type": "address"
        },
        {
          "indexed": true,
          "internalType": "uint256",
          "name": "tokenId",
          "type": "uint256"
        }
      ],
      "name": "Transfer",
      "type": "event"
    },
    {
      "inputs": [
        {
          "internalType": "address",
          "name": "to",
          "type": "address"
        },
        {
          "internalType": "uint256",
          "name": "tokenId",
          "type": "uint256"
        }
      ],
      "name": "approve",
      "outputs": [],
      "stateMutability": "nonpayable",
      "type": "function"
    },
    {
      "inputs": [
        {
          "internalType": "address",
          "name": "owner",
          "type": "address"
        }
      ],
      "name": "balanceOf",
      "outputs": [
        {
          "internalType": "uint256",
          "name": "",
          "type": "uint256"
        }
      ],
      "stateMutability": "view",
      "type": "function",
      "constant": true
    },
    {
      "inputs": [
        {
          "internalType": "uint256",
          "name": "tokenId",
          "type": "uint256"
        }
      ],
      "name": "getApproved",
      "outputs": [
        {
          "internalType": "address",
          "name": "",
          "type": "address"
        }
      ],
      "stateMutability": "view",
      "type": "function",
      "constant": true
    },
    {
      "inputs": [
        {
          "internalType": "address",
          "name": "owner",
          "type": "address"
        },
        {
          "internalType": "address",
          "name": "operator",
          "type": "address"
        }
      ],
      "name": "isApprovedForAll",
      "outputs": [
        {
          "internalType": "bool",
          "name": "",
          "type": "bool"
        }
      ],
      "stateMutability": "view",
      "type": "function",
      "constant": true
    },
    {
      "inputs": [],
      "name": "name",
      "outputs": [
        {
          "internalType": "string",
          "name": "",
          "type": "string"
        }
      ],
      "stateMutability": "view",
      "type": "function",
      "constant": true
    },
    {
      "inputs": [],
      "name": "owner",
      "outputs": [
        {
          "internalType": "address",
          "name": "",
          "type": "address"
        }
      ],
      "stateMutability": "view",
      "type": "function",
      "constant": true
    },
    {
      "inputs": [
        {
          "internalType": "uint256",
          "name": "tokenId",
          "type": "uint256"
        }
      ],
      "name": "ownerOf",
      "outputs": [
        {
          "internalType": "address",
          "name": "",
          "type": "address"
        }
      ],
      "stateMutability": "view",
      "type": "function",
      "constant": true
    },
    {
      "inputs": [],
      "name": "renounceOwnership",
      "outputs": [],
      "stateMutability": "nonpayable",
      "type": "function"
    },
    {
      "inputs": [
        {
          "internalType": "address",
          "name": "from",
          "type": "address"
        },
        {
          "internalType": "address",
          "name": "to",
          "type": "address"
        },
        {
          "internalType": "uint256",
          "name": "tokenId",
          "type": "uint256"
        }
      ],
      "name": "safeTransferFrom",
      "outputs": [],
      "stateMutability": "nonpayable",
      "type": "function"
    },
    {
      "inputs": [
        {
          "internalType": "address",
          "name": "from",
          "type": "address"
        },
        {
          "internalType": "address",
          "name": "to",
          "type": "address"
        },
        {
          "internalType": "uint256",
          "name": "tokenId",
          "type": "uint256"
        },
        {
          "internalType": "bytes",
          "name": "data",
          "type": "bytes"
        }
      ],
      "name": "safeTransferFrom",
      "outputs": [],
      "stateMutability": "nonpayable",
      "type": "function"
    },
    {
      "inputs": [
        {
          "internalType": "address",
          "name": "operator",
          "type": "address"
        },
        {
          "internalType": "bool",
          "name": "approved",
          "type": "bool"
        }
      ],
      "name": "setApprovalForAll",
      "outputs": [],
      "stateMutability": "nonpayable",
      "type": "function"
    },
    {
      "inputs": [],
      "name": "symbol",
      "outputs": [
        {
          "internalType": "string",
          "name": "",
          "type": "string"
        }
      ],
      "stateMutability": "view",
      "type": "function",
      "constant": true
    },
    {
      "inputs": [
        {
          "internalType": "uint256",
          "name": "index",
          "type": "uint256"
        }
      ],
      "name": "tokenByIndex",
      "outputs": [
        {
          "internalType": "uint256",
          "name": "",
          "type": "uint256"
        }
      ],
      "stateMutability": "view",
      "type": "function",
      "constant": true
    },
    {
      "inputs": [
        {
          "internalType": "address",
          "name": "owner",
          "type": "address"
        },
        {
          "internalType": "uint256",
          "name": "index",
          "type": "uint256"
        }
      ],
      "name": "tokenOfOwnerByIndex",
      "outputs": [
        {
          "internalType": "uint256",
          "name": "",
          "type": "uint256"
        }
      ],
      "stateMutability": "view",
      "type": "function",
      "constant": true
    },
    {
      "inputs": [],
      "name": "totalSupply",
      "outputs": [
        {
          "internalType": "uint256",
          "name": "",
          "type": "uint256"
        }
      ],
      "stateMutability": "view",
      "type": "function",
      "constant": true
    },
    {
      "inputs": [
        {
          "internalType": "address",
          "name": "from",
          "type": "address"
        },
        {
          "internalType": "address",
          "name": "to",
          "type": "address"
        },
        {
          "internalType": "uint256",
          "name": "tokenId",
          "type": "uint256"
        }
      ],
      "name": "transferFrom",
      "outputs": [],
      "stateMutability": "nonpayable",
      "type": "function"
    },
    {
      "inputs": [
        {
          "internalType": "address",
          "name": "newOwner",
          "type": "address"
        }
      ],
      "name": "transferOwnership",
      "outputs": [],
      "stateMutability": "nonpayable",
      "type": "function"
    },
    {
      "inputs": [
        {
          "internalType": "string",
          "name": "donorName",
          "type": "string"
        }
      ],
      "name": "mintThankYou",
      "outputs": [],
      "stateMutability": "payable",
      "type": "function",
      "payable": true
    },
    {
      "inputs": [
        {
          "internalType": "uint256",
          "name": "tokenId",
          "type": "uint256"
        },
        {
          "internalType": "string",
          "name": "donorName",
          "type": "string"
        }
      ],
      "name": "generateMetadata",
      "outputs": [
        {
          "internalType": "string",
          "name": "",
          "type": "string"
        }
      ],
      "stateMutability": "pure",
      "type": "function",
      "constant": true
    },
    {
      "inputs": [
        {
          "internalType": "address",
          "name": "_owner",
          "type": "address"
        }
      ],
      "name": "tokensOfOwner",
      "outputs": [
        {
          "internalType": "uint256[]",
          "name": "",
          "type": "uint256[]"
        }
      ],
      "stateMutability": "view",
      "type": "function",
      "constant": true
    },
    {
      "inputs": [],
      "name": "withdraw",
      "outputs": [],
      "stateMutability": "payable",
      "type": "function",
      "payable": true
    },
    {
      "inputs": [
        {
          "internalType": "uint256",
          "name": "tokenId",
          "type": "uint256"
        }
      ],
      "name": "tokenURI",
      "outputs": [
        {
          "internalType": "string",
          "name": "",
          "type": "string"
        }
      ],
      "stateMutability": "view",
      "type": "function",
      "constant": true
    },
    {
      "inputs": [
        {
          "internalType": "bytes4",
          "name": "interfaceId",
          "type": "bytes4"
        }
      ],
      "name": "supportsInterface",
      "outputs": [
        {
          "internalType": "bool",
          "name": "",
          "type": "bool"
        }
      ],
      "stateMutability": "view",
      "type": "function",
      "constant": true
    }
  ],
  "bytecode": "0x60806040523480156200001157600080fd5b506040518060400160405280600d81526020017f5468616e6b20596f75204e4654000000000000000000000000000000000000008152506040518060400160405280600381526020017f54594e000000000000000000000000000000000000000000000000000000000081525081600090816200008f919062000412565b508060019081620000a1919062000412565b505050620000c4620000b8620000ca60201b60201c565b620000d260201b60201c565b620004f9565b600033905090565b6000600b60009054906101000a900473ffffffffffffffffffffffffffffffffffffffff16905081600b60006101000a81548173ffffffffffffffffffffffffffffffffffffffff021916908373ffffffffffffffffffffffffffffffffffffffff1602179055508173ffffffffffffffffffffffffffffffffffffffff168173ffffffffffffffffffffffffffffffffffffffff167f8be0079c531659141344cd1fd0a4f28419497f9722a3daafe3b4186f6b6457e060405160405180910390a35050565b600081519050919050565b7f4e487b7100000000000000000000000000000000000000000000000000000000600052604160045260246000fd5b7f4e487b7100000000000000000000000000000000000000000000000000000000600052602260045260246000fd5b600060028204905060018216806200021a57607f821691505b60208210810362000230576200022f620001d2565b5b50919050565b60008190508160005260206000209050919050565b60006020601f8301049050919050565b600082821b905092915050565b6000600883026200029a7fffffffffffffffffffffffffffffffffffffffffffffffffffffffffffffffff826200025b565b620002a686836200025b565b95508019841693508086168417925050509392505050565b6000819050919050565b6000819050919050565b6000620002f3620002ed620002e784620002be565b620002c8565b620002be565b9050919050565b6000819050919050565b6200030f83620002d2565b620003276200031e82620002fa565b84845462000268565b825550505050565b600090565b6200033e6200032f565b6200034b81848462000304565b505050565b5b8181101562000373576200036760008262000334565b60018101905062000351565b5050565b601f821115620003c2576200038c8162000236565b62000397846200024b565b81016020851015620003a7578190505b620003bf620003b6856200024b565b83018262000350565b50505b505050565b600082821c905092915050565b6000620003e760001984600802620003c7565b1980831691505092915050565b6000620004028383620003d4565b9150826002028217905092915050565b6200041d8262000198565b67ffffffffffffffff811115620004395762000438620001a3565b5b62000445825462000201565b6200045282828562000377565b600060209050601f8311600181146200048a576000841562000475578287015190505b620004818582620003f4565b865550620004f1565b601f1984166200049a8662000236565b60005b82811015620004c4578489015182556001820191506020850194506020810190506200049d565b86831015620004e45784890151620004e0601f891682620003d4565b8355505b6001600288020188555050505b505050505050565b61481f80620005096000396000f3fe6080604052600436106101405760003560e01c8063691a3ca0116100b657806399aa81761161006f57806399aa817614610475578063a22cb46514610491578063b88d4fde146104ba578063c87b56dd146104e3578063e985e9c514610520578063f2fde38b1461055d57610140565b8063691a3ca01461035157806370a082311461038e578063715018a6146103cb5780638462151c146103e25780638da5cb5b1461041f57806395d89b411461044a57610140565b806323b872dd1161010857806323b872dd1461023e5780632f745c59146102675780633ccfd60b146102a457806342842e0e146102ae5780634f6ccce7146102d75780636352211e1461031457610140565b806301ffc9a71461014557806306fdde0314610182578063081812fc146101ad578063095ea7b3146101ea57806318160ddd14610213575b600080fd5b34801561015157600080fd5b5061016c60048036038101906101679190612956565b610586565b604051610179919061299e565b60405180910390f35b34801561018e57600080fd5b50610197610598565b6040516101a49190612a49565b60405180910390f35b3480156101b957600080fd5b506101d460048036038101906101cf9190612aa1565b61062a565b6040516101e19190612b0f565b60405180910390f35b3480156101f657600080fd5b50610211600480360381019061020c9190612b56565b610670565b005b34801561021f57600080fd5b50610228610787565b6040516102359190612ba5565b60405180910390f35b34801561024a57600080fd5b5061026560048036038101906102609190612bc0565b610794565b005b34801561027357600080fd5b5061028e60048036038101906102899190612b56565b6107f4565b60405161029b9190612ba5565b60405180910390f35b6102ac610899565b005b3480156102ba57600080fd5b506102d560048036038101906102d09190612bc0565b610999565b005b3480156102e357600080fd5b506102fe60048036038101906102f99190612aa1565b6109b9565b60405161030b9190612ba5565b60405180910390f35b34801561032057600080fd5b5061033b60048036038101906103369190612aa1565b610a2a565b6040516103489190612b0f565b60405180910390f35b34801561035d57600080fd5b5061037860048036038101906103739190612d48565b610ab0565b6040516103859190612a49565b60405180910390f35b34801561039a57600080fd5b506103b560048036038101906103b09190612da4565b610b46565b6040516103c29190612ba5565b60405180910390f35b3480156103d757600080fd5b506103e0610bfd565b005b3480156103ee57600080fd5b5061040960048036038101906104049190612da4565b610c11565b6040516104169190612e8f565b60405180910390f35b34801561042b57600080fd5b50610434610cbf565b6040516104419190612b0f565b60405180910390f35b34801561045657600080fd5b5061045f610ce9565b60405161046c9190612a49565b60405180910390f35b61048f600480360381019061048a9190612eb1565b610d7b565b005b34801561049d57600080fd5b506104b860048036038101906104b39190612f26565b610ec7565b005b3480156104c657600080fd5b506104e160048036038101906104dc9190613007565b610edd565b005b3480156104ef57600080fd5b5061050a60048036038101906105059190612aa1565b610f3f565b6040516105179190612a49565b60405180910390f35b34801561052c57600080fd5b506105476004803603810190610542919061308a565b610f51565b604051610554919061299e565b60405180910390f35b34801561056957600080fd5b50610584600480360381019061057f9190612da4565b610fe5565b005b600061059182611068565b9050919050565b6060600080546105a7906130f9565b80601f01602080910402602001604051908101604052809291908181526020018280546105d3906130f9565b80156106205780601f106105f557610100808354040283529160200191610620565b820191906000526020600020905b81548152906001019060200180831161060357829003601f168201915b5050505050905090565b6000610635826110e2565b6004600083815260200190815260200160002060009054906101000a900473ffffffffffffffffffffffffffffffffffffffff169050919050565b600061067b82610a2a565b90508073ffffffffffffffffffffffffffffffffffffffff168373ffffffffffffffffffffffffffffffffffffffff16036106eb576040517f08c379a00000000000000000000000000000000000000000000000000000000081526004016106e29061319c565b60405180910390fd5b8073ffffffffffffffffffffffffffffffffffffffff1661070a61112d565b73ffffffffffffffffffffffffffffffffffffffff16148061073957506107388161073361112d565b610f51565b5b610778576040517f08c379a000000000000000000000000000000000000000000000000000000000815260040161076f9061322e565b60405180910390fd5b6107828383611135565b505050565b6000600880549050905090565b6107a561079f61112d565b826111ee565b6107e4576040517f08c379a00000000000000000000000000000000000000000000000000000000081526004016107db906132c0565b60405180910390fd5b6107ef838383611283565b505050565b60006107ff83610b46565b8210610840576040517f08c379a000000000000000000000000000000000000000000000000000000000815260040161083790613352565b60405180910390fd5b600660008473ffffffffffffffffffffffffffffffffffffffff1673ffffffffffffffffffffffffffffffffffffffff168152602001908152602001600020600083815260200190815260200160002054905092915050565b6108a161157c565b6000479050600081116108e9576040517f08c379a00000000000000000000000000000000000000000000000000000000081526004016108e0906133be565b60405180910390fd5b60003373ffffffffffffffffffffffffffffffffffffffff168260405161090f9061340f565b60006040518083038185875af1925050503d806000811461094c576040519150601f19603f3d011682016040523d82523d6000602084013e610951565b606091505b5050905080610995576040517f08c379a000000000000000000000000000000000000000000000000000000000815260040161098c90613470565b60405180910390fd5b5050565b6109b483838360405180602001604052806000815250610edd565b505050565b60006109c3610787565b8210610a04576040517f08c379a00000000000000000000000000000000000000000000000000000000081526004016109fb90613502565b60405180910390fd5b60088281548110610a1857610a17613522565b5b90600052602060002001549050919050565b600080610a36836115fa565b9050600073ffffffffffffffffffffffffffffffffffffffff168173ffffffffffffffffffffffffffffffffffffffff1603610aa7576040517f08c379a0000000000000000000000000000000000000000000000000000000008152600401610a9e9061359d565b60405180910390fd5b80915050919050565b6060600082604051602001610ac59190613989565b60405160208183030381529060405290506000610b14610ae486611637565b610aed84611705565b86604051602001610b0093929190613b8f565b604051602081830303815290604052611705565b9050600081604051602001610b299190613c38565b604051602081830303815290604052905080935050505092915050565b60008073ffffffffffffffffffffffffffffffffffffffff168273ffffffffffffffffffffffffffffffffffffffff1603610bb6576040517f08c379a0000000000000000000000000000000000000000000000000000000008152600401610bad90613ccc565b60405180910390fd5b600360008373ffffffffffffffffffffffffffffffffffffffff1673ffffffffffffffffffffffffffffffffffffffff168152602001908152602001600020549050919050565b610c0561157c565b610c0f6000611868565b565b60606000610c1e83610b46565b905060008167ffffffffffffffff811115610c3c57610c3b612c1d565b5b604051908082528060200260200182016040528015610c6a5781602001602082028036833780820191505090505b50905060005b82811015610cb457610c8285826107f4565b828281518110610c9557610c94613522565b5b6020026020010181815250508080610cac90613d1b565b915050610c70565b508092505050919050565b6000600b60009054906101000a900473ffffffffffffffffffffffffffffffffffffffff16905090565b606060018054610cf8906130f9565b80601f0160208091040260200160405190810160405280929190818152602001828054610d24906130f9565b8015610d715780601f10610d4657610100808354040283529160200191610d71565b820191906000526020600020905b815481529060010190602001808311610d5457829003601f168201915b5050505050905090565b66038d7ea4c68000341015610dc5576040517f08c379a0000000000000000000000000000000000000000000000000000000008152600401610dbc90613daf565b60405180910390fd5b6000610dda610dd4600c61192e565b83610ab0565b9050600d6040518060800160405280610df3600c61192e565b81526020013481526020013373ffffffffffffffffffffffffffffffffffffffff168152602001848152509080600181540180825580915050600190039060005260206000209060040201600090919091909150600082015181600001556020820151816001015560408201518160020160006101000a81548173ffffffffffffffffffffffffffffffffffffffff021916908373ffffffffffffffffffffffffffffffffffffffff1602179055506060820151816003019081610eb79190613f7b565b505050610ec38161193c565b5050565b610ed9610ed261112d565b838361196c565b5050565b610eee610ee861112d565b836111ee565b610f2d576040517f08c379a0000000000000000000000000000000000000000000000000000000008152600401610f24906132c0565b60405180910390fd5b610f3984848484611ad8565b50505050565b6060610f4a82611b34565b9050919050565b6000600560008473ffffffffffffffffffffffffffffffffffffffff1673ffffffffffffffffffffffffffffffffffffffff16815260200190815260200160002060008373ffffffffffffffffffffffffffffffffffffffff1673ffffffffffffffffffffffffffffffffffffffff16815260200190815260200160002060009054906101000a900460ff16905092915050565b610fed61157c565b600073ffffffffffffffffffffffffffffffffffffffff168173ffffffffffffffffffffffffffffffffffffffff160361105c576040517f08c379a0000000000000000000000000000000000000000000000000000000008152600401611053906140bf565b60405180910390fd5b61106581611868565b50565b60007f780e9d63000000000000000000000000000000000000000000000000000000007bffffffffffffffffffffffffffffffffffffffffffffffffffffffff1916827bffffffffffffffffffffffffffffffffffffffffffffffffffffffff191614806110db57506110da82611c46565b5b9050919050565b6110eb81611d28565b61112a576040517f08c379a00000000000000000000000000000000000000000000000000000000081526004016111219061359d565b60405180910390fd5b50565b600033905090565b816004600083815260200190815260200160002060006101000a81548173ffffffffffffffffffffffffffffffffffffffff021916908373ffffffffffffffffffffffffffffffffffffffff160217905550808273ffffffffffffffffffffffffffffffffffffffff166111a883610a2a565b73ffffffffffffffffffffffffffffffffffffffff167f8c5be1e5ebec7d5bd14f71427d1e84f3dd0314c0f7b2291e5b200ac8c7c3b92560405160405180910390a45050565b6000806111fa83610a2a565b90508073ffffffffffffffffffffffffffffffffffffffff168473ffffffffffffffffffffffffffffffffffffffff16148061123c575061123b8185610f51565b5b8061127a57508373ffffffffffffffffffffffffffffffffffffffff166112628461062a565b73ffffffffffffffffffffffffffffffffffffffff16145b91505092915050565b8273ffffffffffffffffffffffffffffffffffffffff166112a382610a2a565b73ffffffffffffffffffffffffffffffffffffffff16146112f9576040517f08c379a00000000000000000000000000000000000000000000000000000000081526004016112f090614151565b60405180910390fd5b600073ffffffffffffffffffffffffffffffffffffffff168273ffffffffffffffffffffffffffffffffffffffff1603611368576040517f08c379a000000000000000000000000000000000000000000000000000000000815260040161135f906141e3565b60405180910390fd5b6113758383836001611d69565b8273ffffffffffffffffffffffffffffffffffffffff1661139582610a2a565b73ffffffffffffffffffffffffffffffffffffffff16146113eb576040517f08c379a00000000000000000000000000000000000000000000000000000000081526004016113e290614151565b60405180910390fd5b6004600082815260200190815260200160002060006101000a81549073ffffffffffffffffffffffffffffffffffffffff02191690556001600360008573ffffffffffffffffffffffffffffffffffffffff1673ffffffffffffffffffffffffffffffffffffffff168152602001908152602001600020600082825403925050819055506001600360008473ffffffffffffffffffffffffffffffffffffffff1673ffffffffffffffffffffffffffffffffffffffff16815260200190815260200160002060008282540192505081905550816002600083815260200190815260200160002060006101000a81548173ffffffffffffffffffffffffffffffffffffffff021916908373ffffffffffffffffffffffffffffffffffffffff160217905550808273ffffffffffffffffffffffffffffffffffffffff168473ffffffffffffffffffffffffffffffffffffffff167fddf252ad1be2c89b69c2b068fc378daa952ba7f163c4a11628f55a4df523b3ef60405160405180910390a46115778383836001611d7b565b505050565b61158461112d565b73ffffffffffffffffffffffffffffffffffffffff166115a2610cbf565b73ffffffffffffffffffffffffffffffffffffffff16146115f8576040517f08c379a00000000000000000000000000000000000000000000000000000000081526004016115ef9061424f565b60405180910390fd5b565b60006002600083815260200190815260200160002060009054906101000a900473ffffffffffffffffffffffffffffffffffffffff169050919050565b60606000600161164684611d81565b01905060008167ffffffffffffffff81111561166557611664612c1d565b5b6040519080825280601f01601f1916602001820160405280156116975781602001600182028036833780820191505090505b509050600082602001820190505b6001156116fa578080600190039150507f3031323334353637383961626364656600000000000000000000000000000000600a86061a8153600a85816116ee576116ed61426f565b5b049450600085036116a5575b819350505050919050565b6060600082510361172757604051806020016040528060008152509050611863565b60006040518060600160405280604081526020016147aa6040913990506000600360028551611756919061429e565b61176091906142d2565b600461176c9190614303565b67ffffffffffffffff81111561178557611784612c1d565b5b6040519080825280601f01601f1916602001820160405280156117b75781602001600182028036833780820191505090505b509050600182016020820185865187015b80821015611823576003820191508151603f8160121c168501518453600184019350603f81600c1c168501518453600184019350603f8160061c168501518453600184019350603f81168501518453600184019350506117c8565b505060038651066001811461183f57600281146118525761185a565b603d6001830353603d600283035361185a565b603d60018303535b50505080925050505b919050565b6000600b60009054906101000a900473ffffffffffffffffffffffffffffffffffffffff16905081600b60006101000a81548173ffffffffffffffffffffffffffffffffffffffff021916908373ffffffffffffffffffffffffffffffffffffffff1602179055508173ffffffffffffffffffffffffffffffffffffffff168173ffffffffffffffffffffffffffffffffffffffff167f8be0079c531659141344cd1fd0a4f28419497f9722a3daafe3b4186f6b6457e060405160405180910390a35050565b600081600001549050919050565b6000611948600c61192e565b90506119543382611ed4565b61195e8183611ef2565b611968600c611f5f565b5050565b8173ffffffffffffffffffffffffffffffffffffffff168373ffffffffffffffffffffffffffffffffffffffff16036119da576040517f08c379a00000000000000000000000000000000000000000000000000000000081526004016119d190614391565b60405180910390fd5b80600560008573ffffffffffffffffffffffffffffffffffffffff1673ffffffffffffffffffffffffffffffffffffffff16815260200190815260200160002060008473ffffffffffffffffffffffffffffffffffffffff1673ffffffffffffffffffffffffffffffffffffffff16815260200190815260200160002060006101000a81548160ff0219169083151502179055508173ffffffffffffffffffffffffffffffffffffffff168373ffffffffffffffffffffffffffffffffffffffff167f17307eab39ab6107e8899845ad3d59bd9653f200f220920489ca2b5937696c3183604051611acb919061299e565b60405180910390a3505050565b611ae3848484611283565b611aef84848484611f75565b611b2e576040517f08c379a0000000000000000000000000000000000000000000000000000000008152600401611b2590614423565b60405180910390fd5b50505050565b6060611b3f826110e2565b6000600a60008481526020019081526020016000208054611b5f906130f9565b80601f0160208091040260200160405190810160405280929190818152602001828054611b8b906130f9565b8015611bd85780601f10611bad57610100808354040283529160200191611bd8565b820191906000526020600020905b815481529060010190602001808311611bbb57829003601f168201915b505050505090506000611be96120fc565b90506000815103611bfe578192505050611c41565b600082511115611c33578082604051602001611c1b929190614443565b60405160208183030381529060405292505050611c41565b611c3c84612113565b925050505b919050565b60007f80ac58cd000000000000000000000000000000000000000000000000000000007bffffffffffffffffffffffffffffffffffffffffffffffffffffffff1916827bffffffffffffffffffffffffffffffffffffffffffffffffffffffff19161480611d1157507f5b5e139f000000000000000000000000000000000000000000000000000000007bffffffffffffffffffffffffffffffffffffffffffffffffffffffff1916827bffffffffffffffffffffffffffffffffffffffffffffffffffffffff1916145b80611d215750611d208261217b565b5b9050919050565b60008073ffffffffffffffffffffffffffffffffffffffff16611d4a836115fa565b73ffffffffffffffffffffffffffffffffffffffff1614159050919050565b611d75848484846121e5565b50505050565b50505050565b600080600090507a184f03e93ff9f4daa797ed6e38ed64bf6a1f0100000000000000008310611ddf577a184f03e93ff9f4daa797ed6e38ed64bf6a1f0100000000000000008381611dd557611dd461426f565b5b0492506040810190505b6d04ee2d6d415b85acef81000000008310611e1c576d04ee2d6d415b85acef81000000008381611e1257611e1161426f565b5b0492506020810190505b662386f26fc100008310611e4b57662386f26fc100008381611e4157611e4061426f565b5b0492506010810190505b6305f5e1008310611e74576305f5e1008381611e6a57611e6961426f565b5b0492506008810190505b6127108310611e99576127108381611e8f57611e8e61426f565b5b0492506004810190505b60648310611ebc5760648381611eb257611eb161426f565b5b0492506002810190505b600a8310611ecb576001810190505b80915050919050565b611eee828260405180602001604052806000815250612343565b5050565b611efb82611d28565b611f3a576040517f08c379a0000000000000000000000000000000000000000000000000000000008152600401611f31906144d9565b60405180910390fd5b80600a60008481526020019081526020016000209081611f5a9190613f7b565b505050565b6001816000016000828254019250508190555050565b6000611f968473ffffffffffffffffffffffffffffffffffffffff1661239e565b156120ef578373ffffffffffffffffffffffffffffffffffffffff1663150b7a02611fbf61112d565b8786866040518563ffffffff1660e01b8152600401611fe1949392919061454e565b6020604051808303816000875af192505050801561201d57506040513d601f19601f8201168201806040525081019061201a91906145af565b60015b61209f573d806000811461204d576040519150601f19603f3d011682016040523d82523d6000602084013e612052565b606091505b506000815103612097576040517f08c379a000000000000000000000000000000000000000000000000000000000815260040161208e90614423565b60405180910390fd5b805181602001fd5b63150b7a0260e01b7bffffffffffffffffffffffffffffffffffffffffffffffffffffffff1916817bffffffffffffffffffffffffffffffffffffffffffffffffffffffff1916149150506120f4565b600190505b949350505050565b606060405180602001604052806000815250905090565b606061211e826110e2565b60006121286120fc565b905060008151116121485760405180602001604052806000815250612173565b8061215284611637565b604051602001612163929190614443565b6040516020818303038152906040525b915050919050565b60007f01ffc9a7000000000000000000000000000000000000000000000000000000007bffffffffffffffffffffffffffffffffffffffffffffffffffffffff1916827bffffffffffffffffffffffffffffffffffffffffffffffffffffffff1916149050919050565b6121f1848484846123c1565b6001811115612235576040517f08c379a000000000000000000000000000000000000000000000000000000000815260040161222c9061464e565b60405180910390fd5b6000829050600073ffffffffffffffffffffffffffffffffffffffff168573ffffffffffffffffffffffffffffffffffffffff160361227c57612277816123c7565b6122bb565b8373ffffffffffffffffffffffffffffffffffffffff168573ffffffffffffffffffffffffffffffffffffffff16146122ba576122b98582612410565b5b5b600073ffffffffffffffffffffffffffffffffffffffff168473ffffffffffffffffffffffffffffffffffffffff16036122fd576122f88161257d565b61233c565b8473ffffffffffffffffffffffffffffffffffffffff168473ffffffffffffffffffffffffffffffffffffffff161461233b5761233a848261264e565b5b5b5050505050565b61234d83836126cd565b61235a6000848484611f75565b612399576040517f08c379a000000000000000000000000000000000000000000000000000000000815260040161239090614423565b60405180910390fd5b505050565b6000808273ffffffffffffffffffffffffffffffffffffffff163b119050919050565b50505050565b6008805490506009600083815260200190815260200160002081905550600881908060018154018082558091505060019003906000526020600020016000909190919091505550565b6000600161241d84610b46565b612427919061466e565b905060006007600084815260200190815260200160002054905081811461250c576000600660008673ffffffffffffffffffffffffffffffffffffffff1673ffffffffffffffffffffffffffffffffffffffff168152602001908152602001600020600084815260200190815260200160002054905080600660008773ffffffffffffffffffffffffffffffffffffffff1673ffffffffffffffffffffffffffffffffffffffff168152602001908152602001600020600084815260200190815260200160002081905550816007600083815260200190815260200160002081905550505b6007600084815260200190815260200160002060009055600660008573ffffffffffffffffffffffffffffffffffffffff1673ffffffffffffffffffffffffffffffffffffffff16815260200190815260200160002060008381526020019081526020016000206000905550505050565b60006001600880549050612591919061466e565b90506000600960008481526020019081526020016000205490506000600883815481106125c1576125c0613522565b5b9060005260206000200154905080600883815481106125e3576125e2613522565b5b906000526020600020018190555081600960008381526020019081526020016000208190555060096000858152602001908152602001600020600090556008805480612632576126316146a2565b5b6001900381819060005260206000200160009055905550505050565b600061265983610b46565b905081600660008573ffffffffffffffffffffffffffffffffffffffff1673ffffffffffffffffffffffffffffffffffffffff168152602001908152602001600020600083815260200190815260200160002081905550806007600084815260200190815260200160002081905550505050565b600073ffffffffffffffffffffffffffffffffffffffff168273ffffffffffffffffffffffffffffffffffffffff160361273c576040517f08c379a00000000000000000000000000000000000000000000000000000000081526004016127339061471d565b60405180910390fd5b61274581611d28565b15612785576040517f08c379a000000000000000000000000000000000000000000000000000000000815260040161277c90614789565b60405180910390fd5b612793600083836001611d69565b61279c81611d28565b156127dc576040517f08c379a00000000000000000000000000000000000000000000000000000000081526004016127d390614789565b60405180910390fd5b6001600360008473ffffffffffffffffffffffffffffffffffffffff1673ffffffffffffffffffffffffffffffffffffffff16815260200190815260200160002060008282540192505081905550816002600083815260200190815260200160002060006101000a81548173ffffffffffffffffffffffffffffffffffffffff021916908373ffffffffffffffffffffffffffffffffffffffff160217905550808273ffffffffffffffffffffffffffffffffffffffff16600073ffffffffffffffffffffffffffffffffffffffff167fddf252ad1be2c89b69c2b068fc378daa952ba7f163c4a11628f55a4df523b3ef60405160405180910390a46128e6600083836001611d7b565b5050565b6000604051905090565b600080fd5b600080fd5b60007fffffffff0000000000000000000000000000000000000000000000000000000082169050919050565b612933816128fe565b811461293e57600080fd5b50565b6000813590506129508161292a565b92915050565b60006020828403121561296c5761296b6128f4565b5b600061297a84828501612941565b91505092915050565b60008115159050919050565b61299881612983565b82525050565b60006020820190506129b3600083018461298f565b92915050565b600081519050919050565b600082825260208201905092915050565b60005b838110156129f35780820151818401526020810190506129d8565b60008484015250505050565b6000601f19601f8301169050919050565b6000612a1b826129b9565b612a2581856129c4565b9350612a358185602086016129d5565b612a3e816129ff565b840191505092915050565b60006020820190508181036000830152612a638184612a10565b905092915050565b6000819050919050565b612a7e81612a6b565b8114612a8957600080fd5b50565b600081359050612a9b81612a75565b92915050565b600060208284031215612ab757612ab66128f4565b5b6000612ac584828501612a8c565b91505092915050565b600073ffffffffffffffffffffffffffffffffffffffff82169050919050565b6000612af982612ace565b9050919050565b612b0981612aee565b82525050565b6000602082019050612b246000830184612b00565b92915050565b612b3381612aee565b8114612b3e57600080fd5b50565b600081359050612b5081612b2a565b92915050565b60008060408385031215612b6d57612b6c6128f4565b5b6000612b7b85828601612b41565b9250506020612b8c85828601612a8c565b9150509250929050565b612b9f81612a6b565b82525050565b6000602082019050612bba6000830184612b96565b92915050565b600080600060608486031215612bd957612bd86128f4565b5b6000612be786828701612b41565b9350506020612bf886828701612b41565b9250506040612c0986828701612a8c565b9150509250925092565b600080fd5b600080fd5b7f4e487b7100000000000000000000000000000000000000000000000000000000600052604160045260246000fd5b612c55826129ff565b810181811067ffffffffffffffff82111715612c7457612c73612c1d565b5b80604052505050565b6000612c876128ea565b9050612c938282612c4c565b919050565b600067ffffffffffffffff821115612cb357612cb2612c1d565b5b612cbc826129ff565b9050602081019050919050565b82818337600083830152505050565b6000612ceb612ce684612c98565b612c7d565b905082815260208101848484011115612d0757612d06612c18565b5b612d12848285612cc9565b509392505050565b600082601f830112612d2f57612d2e612c13565b5b8135612d3f848260208601612cd8565b91505092915050565b60008060408385031215612d5f57612d5e6128f4565b5b6000612d6d85828601612a8c565b925050602083013567ffffffffffffffff811115612d8e57612d8d6128f9565b5b612d9a85828601612d1a565b9150509250929050565b600060208284031215612dba57612db96128f4565b5b6000612dc884828501612b41565b91505092915050565b600081519050919050565b600082825260208201905092915050565b6000819050602082019050919050565b612e0681612a6b565b82525050565b6000612e188383612dfd565b60208301905092915050565b6000602082019050919050565b6000612e3c82612dd1565b612e468185612ddc565b9350612e5183612ded565b8060005b83811015612e82578151612e698882612e0c565b9750612e7483612e24565b925050600181019050612e55565b5085935050505092915050565b60006020820190508181036000830152612ea98184612e31565b905092915050565b600060208284031215612ec757612ec66128f4565b5b600082013567ffffffffffffffff811115612ee557612ee46128f9565b5b612ef184828501612d1a565b91505092915050565b612f0381612983565b8114612f0e57600080fd5b50565b600081359050612f2081612efa565b92915050565b60008060408385031215612f3d57612f3c6128f4565b5b6000612f4b85828601612b41565b9250506020612f5c85828601612f11565b9150509250929050565b600067ffffffffffffffff821115612f8157612f80612c1d565b5b612f8a826129ff565b9050602081019050919050565b6000612faa612fa584612f66565b612c7d565b905082815260208101848484011115612fc657612fc5612c18565b5b612fd1848285612cc9565b509392505050565b600082601f830112612fee57612fed612c13565b5b8135612ffe848260208601612f97565b91505092915050565b60008060008060808587031215613021576130206128f4565b5b600061302f87828801612b41565b945050602061304087828801612b41565b935050604061305187828801612a8c565b925050606085013567ffffffffffffffff811115613072576130716128f9565b5b61307e87828801612fd9565b91505092959194509250565b600080604083850312156130a1576130a06128f4565b5b60006130af85828601612b41565b92505060206130c085828601612b41565b9150509250929050565b7f4e487b7100000000000000000000000000000000000000000000000000000000600052602260045260246000fd5b6000600282049050600182168061311157607f821691505b602082108103613124576131236130ca565b5b50919050565b7f4552433732313a20617070726f76616c20746f2063757272656e74206f776e6560008201527f7200000000000000000000000000000000000000000000000000000000000000602082015250565b60006131866021836129c4565b91506131918261312a565b604082019050919050565b600060208201905081810360008301526131b581613179565b9050919050565b7f4552433732313a20617070726f76652063616c6c6572206973206e6f7420746f60008201527f6b656e206f776e6572206f7220617070726f76656420666f7220616c6c000000602082015250565b6000613218603d836129c4565b9150613223826131bc565b604082019050919050565b600060208201905081810360008301526132478161320b565b9050919050565b7f4552433732313a2063616c6c6572206973206e6f7420746f6b656e206f776e6560008201527f72206f7220617070726f76656400000000000000000000000000000000000000602082015250565b60006132aa602d836129c4565b91506132b58261324e565b604082019050919050565b600060208201905081810360008301526132d98161329d565b9050919050565b7f455243373231456e756d657261626c653a206f776e657220696e646578206f7560008201527f74206f6620626f756e6473000000000000000000000000000000000000000000602082015250565b600061333c602b836129c4565b9150613347826132e0565b604082019050919050565b6000602082019050818103600083015261336b8161332f565b9050919050565b7f4e6f206574686572206c65667420746f20776974686472617700000000000000600082015250565b60006133a86019836129c4565b91506133b382613372565b602082019050919050565b600060208201905081810360008301526133d78161339b565b9050919050565b600081905092915050565b50565b60006133f96000836133de565b9150613404826133e9565b600082019050919050565b600061341a826133ec565b9150819050919050565b7f5472616e73666572206661696c65642e00000000000000000000000000000000600082015250565b600061345a6010836129c4565b915061346582613424565b602082019050919050565b600060208201905081810360008301526134898161344d565b9050919050565b7f455243373231456e756d657261626c653a20676c6f62616c20696e646578206f60008201527f7574206f6620626f756e64730000000000000000000000000000000000000000602082015250565b60006134ec602c836129c4565b91506134f782613490565b604082019050919050565b6000602082019050818103600083015261351b816134df565b9050919050565b7f4e487b7100000000000000000000000000000000000000000000000000000000600052603260045260246000fd5b7f4552433732313a20696e76616c696420746f6b656e2049440000000000000000600082015250565b60006135876018836129c4565b915061359282613551565b602082019050919050565b600060208201905081810360008301526135b68161357a565b9050919050565b600081905092915050565b7f3c73766720786d6c6e733d27687474703a2f2f7777772e77332e6f72672f323060008201527f30302f73766727207072657365727665417370656374526174696f3d27784d6960208201527f6e794d696e206d656574272076696577426f783d27302030203335302033353060408201527f273e000000000000000000000000000000000000000000000000000000000000606082015250565b60006136706062836135bd565b915061367b826135c8565b606282019050919050565b7f3c7374796c653e2e62617365207b2066696c6c3a2077686974653b20666f6e7460008201527f2d66616d696c793a2073657269663b20666f6e742d73697a653a20323570783b60208201527f207d3c2f7374796c653e00000000000000000000000000000000000000000000604082015250565b6000613708604a836135bd565b915061371382613686565b604a82019050919050565b7f3c726563742077696474683d273130302527206865696768743d27313030252760008201527f2066696c6c3d276f72616e676527202f3e000000000000000000000000000000602082015250565b600061377a6031836135bd565b91506137858261371e565b603182019050919050565b7f3c7465787420783d273530252720793d273430252720636c6173733d2762617360008201527f652720646f6d696e616e742d626173656c696e653d276d6964646c652720746560208201527f78742d616e63686f723d276d6964646c65273e00000000000000000000000000604082015250565b60006138126053836135bd565b915061381d82613790565b605382019050919050565b7f3c747370616e20793d273430252720783d27353025273e5468616e6b20596f7560008201527f20666f7220446f6e6174696e67213c2f747370616e3e00000000000000000000602082015250565b60006138846036836135bd565b915061388f82613828565b603682019050919050565b7f3c747370616e20793d273530252720783d27353025273e47656e65726174696f60008201527f6e20000000000000000000000000000000000000000000000000000000000000602082015250565b60006138f66022836135bd565b91506139018261389a565b602282019050919050565b6000613917826129b9565b61392181856135bd565b93506139318185602086016129d5565b80840191505092915050565b7f3c2f747370616e3e3c2f746578743e3c2f7376673e0000000000000000000000600082015250565b60006139736015836135bd565b915061397e8261393d565b601582019050919050565b600061399482613663565b915061399f826136fb565b91506139aa8261376d565b91506139b582613805565b91506139c082613877565b91506139cb826138e9565b91506139d7828461390c565b91506139e282613966565b915081905092915050565b7f7b226e616d65223a20225468616e6b20596f75204e4654202300000000000000600082015250565b6000613a236019836135bd565b9150613a2e826139ed565b601982019050919050565b7f222c20226465736372697074696f6e223a20224120746f6b656e206f6620746860008201527f616e6b7320666f7220646f6e6174696e6721222c2022696d616765223a20226460208201527f6174613a696d6167652f7376672b786d6c3b6261736536342c00000000000000604082015250565b6000613abb6059836135bd565b9150613ac682613a39565b605982019050919050565b7f222c202261747472696275746573223a205b7b2274726169745f74797065223a60008201527f2022446f6e6f72222c202276616c7565223a2022000000000000000000000000602082015250565b6000613b2d6034836135bd565b9150613b3882613ad1565b603482019050919050565b7f227d5d7d00000000000000000000000000000000000000000000000000000000600082015250565b6000613b796004836135bd565b9150613b8482613b43565b600482019050919050565b6000613b9a82613a16565b9150613ba6828661390c565b9150613bb182613aae565b9150613bbd828561390c565b9150613bc882613b20565b9150613bd4828461390c565b9150613bdf82613b6c565b9150819050949350505050565b7f646174613a6170706c69636174696f6e2f6a736f6e3b6261736536342c000000600082015250565b6000613c22601d836135bd565b9150613c2d82613bec565b601d82019050919050565b6000613c4382613c15565b9150613c4f828461390c565b915081905092915050565b7f4552433732313a2061646472657373207a65726f206973206e6f74206120766160008201527f6c6964206f776e65720000000000000000000000000000000000000000000000602082015250565b6000613cb66029836129c4565b9150613cc182613c5a565b604082019050919050565b60006020820190508181036000830152613ce581613ca9565b9050919050565b7f4e487b7100000000000000000000000000000000000000000000000000000000600052601160045260246000fd5b6000613d2682612a6b565b91507fffffffffffffffffffffffffffffffffffffffffffffffffffffffffffffffff8203613d5857613d57613cec565b5b600182019050919050565b7f536d616c6c65737420646f6e6174696f6e20697320302e303031204554480000600082015250565b6000613d99601e836129c4565b9150613da482613d63565b602082019050919050565b60006020820190508181036000830152613dc881613d8c565b9050919050565b60008190508160005260206000209050919050565b60006020601f8301049050919050565b600082821b905092915050565b600060088302613e317fffffffffffffffffffffffffffffffffffffffffffffffffffffffffffffffff82613df4565b613e3b8683613df4565b95508019841693508086168417925050509392505050565b6000819050919050565b6000613e78613e73613e6e84612a6b565b613e53565b612a6b565b9050919050565b6000819050919050565b613e9283613e5d565b613ea6613e9e82613e7f565b848454613e01565b825550505050565b600090565b613ebb613eae565b613ec6818484613e89565b505050565b5b81811015613eea57613edf600082613eb3565b600181019050613ecc565b5050565b601f821115613f2f57613f0081613dcf565b613f0984613de4565b81016020851015613f18578190505b613f2c613f2485613de4565b830182613ecb565b50505b505050565b600082821c905092915050565b6000613f5260001984600802613f34565b1980831691505092915050565b6000613f6b8383613f41565b9150826002028217905092915050565b613f84826129b9565b67ffffffffffffffff811115613f9d57613f9c612c1d565b5b613fa782546130f9565b613fb2828285613eee565b600060209050601f831160018114613fe55760008415613fd3578287015190505b613fdd8582613f5f565b865550614045565b601f198416613ff386613dcf565b60005b8281101561401b57848901518255600182019150602085019450602081019050613ff6565b868310156140385784890151614034601f891682613f41565b8355505b6001600288020188555050505b505050505050565b7f4f776e61626c653a206e6577206f776e657220697320746865207a65726f206160008201527f6464726573730000000000000000000000000000000000000000000000000000602082015250565b60006140a96026836129c4565b91506140b48261404d565b604082019050919050565b600060208201905081810360008301526140d88161409c565b9050919050565b7f4552433732313a207472616e736665722066726f6d20696e636f72726563742060008201527f6f776e6572000000000000000000000000000000000000000000000000000000602082015250565b600061413b6025836129c4565b9150614146826140df565b604082019050919050565b6000602082019050818103600083015261416a8161412e565b9050919050565b7f4552433732313a207472616e7366657220746f20746865207a65726f2061646460008201527f7265737300000000000000000000000000000000000000000000000000000000602082015250565b60006141cd6024836129c4565b91506141d882614171565b604082019050919050565b600060208201905081810360008301526141fc816141c0565b9050919050565b7f4f776e61626c653a2063616c6c6572206973206e6f7420746865206f776e6572600082015250565b60006142396020836129c4565b915061424482614203565b602082019050919050565b600060208201905081810360008301526142688161422c565b9050919050565b7f4e487b7100000000000000000000000000000000000000000000000000000000600052601260045260246000fd5b60006142a982612a6b565b91506142b483612a6b565b92508282019050808211156142cc576142cb613cec565b5b92915050565b60006142dd82612a6b565b91506142e883612a6b565b9250826142f8576142f761426f565b5b828204905092915050565b600061430e82612a6b565b915061431983612a6b565b925082820261432781612a6b565b9150828204841483151761433e5761433d613cec565b5b5092915050565b7f4552433732313a20617070726f766520746f2063616c6c657200000000000000600082015250565b600061437b6019836129c4565b915061438682614345565b602082019050919050565b600060208201905081810360008301526143aa8161436e565b9050919050565b7f4552433732313a207472616e7366657220746f206e6f6e20455243373231526560008201527f63656976657220696d706c656d656e7465720000000000000000000000000000602082015250565b600061440d6032836129c4565b9150614418826143b1565b604082019050919050565b6000602082019050818103600083015261443c81614400565b9050919050565b600061444f828561390c565b915061445b828461390c565b91508190509392505050565b7f45524337323155524953746f726167653a2055524920736574206f66206e6f6e60008201527f6578697374656e7420746f6b656e000000000000000000000000000000000000602082015250565b60006144c3602e836129c4565b91506144ce82614467565b604082019050919050565b600060208201905081810360008301526144f2816144b6565b9050919050565b600081519050919050565b600082825260208201905092915050565b6000614520826144f9565b61452a8185614504565b935061453a8185602086016129d5565b614543816129ff565b840191505092915050565b60006080820190506145636000830187612b00565b6145706020830186612b00565b61457d6040830185612b96565b818103606083015261458f8184614515565b905095945050505050565b6000815190506145a98161292a565b92915050565b6000602082840312156145c5576145c46128f4565b5b60006145d38482850161459a565b91505092915050565b7f455243373231456e756d657261626c653a20636f6e736563757469766520747260008201527f616e7366657273206e6f7420737570706f727465640000000000000000000000602082015250565b60006146386035836129c4565b9150614643826145dc565b604082019050919050565b600060208201905081810360008301526146678161462b565b9050919050565b600061467982612a6b565b915061468483612a6b565b925082820390508181111561469c5761469b613cec565b5b92915050565b7f4e487b7100000000000000000000000000000000000000000000000000000000600052603160045260246000fd5b7f4552433732313a206d696e7420746f20746865207a65726f2061646472657373600082015250565b60006147076020836129c4565b9150614712826146d1565b602082019050919050565b60006020820190508181036000830152614736816146fa565b9050919050565b7f4552433732313a20746f6b656e20616c7265616479206d696e74656400000000600082015250565b6000614773601c836129c4565b915061477e8261473d565b602082019050919050565b600060208201905081810360008301526147a281614766565b905091905056fe4142434445464748494a4b4c4d4e4f505152535455565758595a6162636465666768696a6b6c6d6e6f707172737475767778797a303132333435363738392b2fa264697066735822122031d41b9b0427f0ae524476958a210e51cef6a2999b50488faef55d74fdd5cb0764736f6c63430008130033",
  "immutableReferences": {},
  "source": "// SPDX-License-Identifier: MIT\npragma solidity ^0.8.9;\n\nimport \"@openzeppelin/contracts/token/ERC721/ERC721.sol\";\nimport \"@openzeppelin/contracts/token/ERC721/extensions/ERC721Enumerable.sol\";\nimport \"@openzeppelin/contracts/token/ERC721/extensions/ERC721URIStorage.sol\";\nimport \"@openzeppelin/contracts/access/Ownable.sol\";\nimport \"@openzeppelin/contracts/utils/Counters.sol\";\nimport \"@openzeppelin/contracts/utils/Base64.sol\";\nimport \"@openzeppelin/contracts/utils/Strings.sol\";\n\n\ncontract ThankYouNft is ERC721, ERC721Enumerable, ERC721URIStorage, Ownable {\n    using Counters for Counters.Counter;\n\n    Counters.Counter private _tokenIds;\n\n    // Define a Donation object\n    struct Donation {\n        uint id;\n        uint amount;\n        address donor;\n        string donorName;\n    }\n\n    Donation[] donations;\n\n    constructor() ERC721(\"Thank You NFT\", \"TYN\") {}\n\n    // Donate money and mint thank you NFT\n    function mintThankYou(string memory donorName) public payable {\n        require(msg.value >= 0.001 ether, \"Smallest donation is 0.001 ETH\");\n\n        string memory metadata = generateMetadata(_tokenIds.current(), donorName);\n        donations.push(Donation(_tokenIds.current(), msg.value, msg.sender, donorName));\n        _mintSingleNft(metadata);\n    }\n\n    // Generate NFT metadata\n    function generateMetadata(uint tokenId, string memory donorName) public pure returns (string memory) {\n        string memory svg = string(abi.encodePacked(\n            \"<svg xmlns='http://www.w3.org/2000/svg' preserveAspectRatio='xMinyMin meet' viewBox='0 0 350 350'>\",\n            \"<style>.base { fill: white; font-family: serif; font-size: 25px; }</style>\",\n            \"<rect width='100%' height='100%' fill='orange' />\",\n            \"<text x='50%' y='40%' class='base' dominant-baseline='middle' text-anchor='middle'>\",\n            \"<tspan y='40%' x='50%'>Thank You for Donating!</tspan>\",\n            \"<tspan y='50%' x='50%'>Generation \",\n            donorName,\n            \"</tspan></text></svg>\"\n        ));\n\n        string memory json = Base64.encode(\n            bytes(\n                string(\n                    abi.encodePacked(\n                        '{\"name\": \"Thank You NFT #',\n                        Strings.toString(tokenId),\n                        '\", \"description\": \"A token of thanks for donating!\", \"image\": \"data:image/svg+xml;base64,',\n                        Base64.encode(bytes(svg)),\n                        '\", \"attributes\": [{\"trait_type\": \"Donor\", \"value\": \"',\n                        donorName,\n                        '\"}]}'\n                    )\n                )\n            )\n        );\n\n        string memory metadata = string(\n            abi.encodePacked(\"data:application/json;base64,\", json)\n        );\n\n        return metadata;\n    }\n\n    // Mint a single NFT with on-chain metadata\n    function _mintSingleNft(string memory _tokenURI) private {\n        uint newTokenID = _tokenIds.current();\n        _safeMint(msg.sender, newTokenID);\n        _setTokenURI(newTokenID, _tokenURI);\n        _tokenIds.increment();\n    }\n\n    // Get tokens of an owner\n    function tokensOfOwner(address _owner) external view returns (uint[] memory) {\n\n        uint tokenCount = balanceOf(_owner);\n        uint[] memory tokensId = new uint256[](tokenCount);\n\n        for (uint i = 0; i < tokenCount; i++) {\n            tokensId[i] = tokenOfOwnerByIndex(_owner, i);\n        }\n        return tokensId;\n    }\n\n    // Withdraw ether donations made \n    function withdraw() public payable onlyOwner {\n        uint balance = address(this).balance;\n        require(balance > 0, \"No ether left to withdraw\");\n\n        (bool success, ) = (msg.sender).call{value: balance}(\"\");\n        require(success, \"Transfer failed.\");\n    }\n\n    // The following functions are overrides required by Solidity.\n\n    function _beforeTokenTransfer(address from, address to, uint256 tokenId, uint256 batchSize)\n        internal\n        override(ERC721, ERC721Enumerable)\n    {\n        super._beforeTokenTransfer(from, to, tokenId, batchSize);\n    }\n\n    function _burn(uint256 tokenId) internal override(ERC721, ERC721URIStorage) {\n        super._burn(tokenId);\n    }\n\n    function tokenURI(uint256 tokenId)\n        public\n        view\n        override(ERC721, ERC721URIStorage)\n        returns (string memory)\n    {\n        return super.tokenURI(tokenId);\n    }\n\n    function supportsInterface(bytes4 interfaceId)\n        public\n        view\n        override(ERC721, ERC721Enumerable)\n        returns (bool)\n    {\n        return super.supportsInterface(interfaceId);\n    }\n}",
  "sourcePath": "/Users/rounakbanik/paulie/ty-nft/contracts/ThankYouNft.sol",
  "compiler": {
    "name": "solc",
    "version": "0.8.19+commit.7dd6d404.Emscripten.clang"
  },
  "schemaVersion": "3.4.13",
  "updatedAt": "2023-03-12T10:29:11.374Z",
  "networkType": "ethereum",
  "devdoc": {
    "events": {
      "Approval(address,address,uint256)": {
        "details": "Emitted when `owner` enables `approved` to manage the `tokenId` token."
      },
      "ApprovalForAll(address,address,bool)": {
        "details": "Emitted when `owner` enables or disables (`approved`) `operator` to manage all of its assets."
      },
      "Transfer(address,address,uint256)": {
        "details": "Emitted when `tokenId` token is transferred from `from` to `to`."
      }
    },
    "kind": "dev",
    "methods": {
      "approve(address,uint256)": {
        "details": "See {IERC721-approve}."
      },
      "balanceOf(address)": {
        "details": "See {IERC721-balanceOf}."
      },
      "getApproved(uint256)": {
        "details": "See {IERC721-getApproved}."
      },
      "isApprovedForAll(address,address)": {
        "details": "See {IERC721-isApprovedForAll}."
      },
      "name()": {
        "details": "See {IERC721Metadata-name}."
      },
      "owner()": {
        "details": "Returns the address of the current owner."
      },
      "ownerOf(uint256)": {
        "details": "See {IERC721-ownerOf}."
      },
      "renounceOwnership()": {
        "details": "Leaves the contract without owner. It will not be possible to call `onlyOwner` functions anymore. Can only be called by the current owner. NOTE: Renouncing ownership will leave the contract without an owner, thereby removing any functionality that is only available to the owner."
      },
      "safeTransferFrom(address,address,uint256)": {
        "details": "See {IERC721-safeTransferFrom}."
      },
      "safeTransferFrom(address,address,uint256,bytes)": {
        "details": "See {IERC721-safeTransferFrom}."
      },
      "setApprovalForAll(address,bool)": {
        "details": "See {IERC721-setApprovalForAll}."
      },
      "symbol()": {
        "details": "See {IERC721Metadata-symbol}."
      },
      "tokenByIndex(uint256)": {
        "details": "See {IERC721Enumerable-tokenByIndex}."
      },
      "tokenOfOwnerByIndex(address,uint256)": {
        "details": "See {IERC721Enumerable-tokenOfOwnerByIndex}."
      },
      "totalSupply()": {
        "details": "See {IERC721Enumerable-totalSupply}."
      },
      "transferFrom(address,address,uint256)": {
        "details": "See {IERC721-transferFrom}."
      },
      "transferOwnership(address)": {
        "details": "Transfers ownership of the contract to a new account (`newOwner`). Can only be called by the current owner."
      }
    },
    "version": 1
  },
  "userdoc": {
    "kind": "user",
    "methods": {},
    "version": 1
  }
}